:03000000020800F3
:0C080000787FE4F6D8FD75810F020847F0
:0F098200010A03020B00FE020D0000020800FF35
:10088C00850C901209A975A0FF850C90E50A24FE31
:10089C00600F146011146013240370141208F0809C
:1008AC00E812091080E312099F80DE12096E80D9CC
:0508BC0085099080D4C5
:0A099F008509907F327E00020936C0
:10096E00E50AB4040E850E9012093285099012091B
:04097E003280ED22B4
:1008F000E4F50FE50AB40117AF907801EF08800125
:0F09000003D8FD120930050FE50FC3940840E43A
:01090F0022C5
:10091000E4F50FE50AB40217AF907801EF08800103
:0F09200023D8FD120930050FE50FC3940840E4FA
:01092F0022A5
:06093000F5907F327E000D
:10093600D3EF9400EE9400400F7D267C82DCFEDD32
:08094600FAEF1F70EB1E80E8C0
:01094E002286
:0709A900D28AD2AAD2AF22CC
:0C0992007F017E017D16DDFEDEFADFF63F
:01099E002236
:1008C10075A0FF120992E5A0B4FF03750A03E5A024
:1008D100B4FE03750A01E5A0B4FD03750A02E5A0A3
:0F08E100B4FB03750A03E5A0B4F703750A0422FC
:0300130002094F90
:10094F00C0E0C0D075D000C005C006C007C2AF124E
:0F095F0008C1D2AFD007D006D005D0D0D0E0323B
:10080C0002088CE493A3F8E493A34003F68001F26E
:10081C0008DFF48029E493A3F85407240CC8C333ED
:10082C00C4540F4420C8834004F456800146F6DFBC
:10083C00E4800B0102040810204080900982E47EC1
:10084C00019360BCA3FF543F30E509541FFEE493B1
:10085C00A360010ECF54C025E060A840B8E493A378
:10086C00FAE493A3F8E493A3C8C582C8CAC583CAA3
:10087C00F0A3C8C582C8CAC583CADFE9DEE780BE5B
:010991000065
:00000001FF
